{
  "contractName": "VotingSystem",
  "abi": [
    {
      "inputs": [],
      "stateMutability": "nonpayable",
      "type": "constructor"
    },
    {
      "anonymous": false,
      "inputs": [
        {
          "indexed": true,
          "internalType": "uint256",
          "name": "campaignId",
          "type": "uint256"
        },
        {
          "indexed": false,
          "internalType": "string",
          "name": "name",
          "type": "string"
        }
      ],
      "name": "CampaignAdded",
      "type": "event"
    },
    {
      "anonymous": false,
      "inputs": [
        {
          "indexed": true,
          "internalType": "uint256",
          "name": "campaignId",
          "type": "uint256"
        },
        {
          "indexed": true,
          "internalType": "uint256",
          "name": "candidateId",
          "type": "uint256"
        },
        {
          "indexed": false,
          "internalType": "string",
          "name": "name",
          "type": "string"
        },
        {
          "indexed": false,
          "internalType": "address",
          "name": "wallet",
          "type": "address"
        }
      ],
      "name": "CandidateAdded",
      "type": "event"
    },
    {
      "anonymous": false,
      "inputs": [
        {
          "indexed": true,
          "internalType": "uint256",
          "name": "campaignId",
          "type": "uint256"
        },
        {
          "indexed": true,
          "internalType": "uint256",
          "name": "candidateId",
          "type": "uint256"
        },
        {
          "indexed": true,
          "internalType": "address",
          "name": "voter",
          "type": "address"
        }
      ],
      "name": "VoteCast",
      "type": "event"
    },
    {
      "inputs": [
        {
          "internalType": "uint256",
          "name": "",
          "type": "uint256"
        }
      ],
      "name": "campaigns",
      "outputs": [
        {
          "internalType": "string",
          "name": "",
          "type": "string"
        }
      ],
      "stateMutability": "view",
      "type": "function",
      "constant": true
    },
    {
      "inputs": [],
      "name": "campaignsCount",
      "outputs": [
        {
          "internalType": "uint256",
          "name": "",
          "type": "uint256"
        }
      ],
      "stateMutability": "view",
      "type": "function",
      "constant": true
    },
    {
      "inputs": [
        {
          "internalType": "uint256",
          "name": "",
          "type": "uint256"
        },
        {
          "internalType": "uint256",
          "name": "",
          "type": "uint256"
        }
      ],
      "name": "candidateNames",
      "outputs": [
        {
          "internalType": "string",
          "name": "",
          "type": "string"
        }
      ],
      "stateMutability": "view",
      "type": "function",
      "constant": true
    },
    {
      "inputs": [
        {
          "internalType": "uint256",
          "name": "",
          "type": "uint256"
        },
        {
          "internalType": "uint256",
          "name": "",
          "type": "uint256"
        }
      ],
      "name": "candidateVotes",
      "outputs": [
        {
          "internalType": "uint256",
          "name": "",
          "type": "uint256"
        }
      ],
      "stateMutability": "view",
      "type": "function",
      "constant": true
    },
    {
      "inputs": [
        {
          "internalType": "uint256",
          "name": "",
          "type": "uint256"
        },
        {
          "internalType": "uint256",
          "name": "",
          "type": "uint256"
        }
      ],
      "name": "candidates",
      "outputs": [
        {
          "internalType": "address",
          "name": "",
          "type": "address"
        }
      ],
      "stateMutability": "view",
      "type": "function",
      "constant": true
    },
    {
      "inputs": [
        {
          "internalType": "uint256",
          "name": "",
          "type": "uint256"
        }
      ],
      "name": "candidatesCount",
      "outputs": [
        {
          "internalType": "uint256",
          "name": "",
          "type": "uint256"
        }
      ],
      "stateMutability": "view",
      "type": "function",
      "constant": true
    },
    {
      "inputs": [
        {
          "internalType": "address",
          "name": "",
          "type": "address"
        },
        {
          "internalType": "uint256",
          "name": "",
          "type": "uint256"
        }
      ],
      "name": "hasVoted",
      "outputs": [
        {
          "internalType": "bool",
          "name": "",
          "type": "bool"
        }
      ],
      "stateMutability": "view",
      "type": "function",
      "constant": true
    },
    {
      "inputs": [],
      "name": "owner",
      "outputs": [
        {
          "internalType": "address",
          "name": "",
          "type": "address"
        }
      ],
      "stateMutability": "view",
      "type": "function",
      "constant": true
    },
    {
      "inputs": [
        {
          "internalType": "string",
          "name": "name",
          "type": "string"
        }
      ],
      "name": "addCampaign",
      "outputs": [],
      "stateMutability": "nonpayable",
      "type": "function"
    },
    {
      "inputs": [
        {
          "internalType": "uint256",
          "name": "campaignId",
          "type": "uint256"
        },
        {
          "internalType": "string",
          "name": "name",
          "type": "string"
        },
        {
          "internalType": "address",
          "name": "candidateWallet",
          "type": "address"
        }
      ],
      "name": "addCandidate",
      "outputs": [],
      "stateMutability": "nonpayable",
      "type": "function"
    },
    {
      "inputs": [
        {
          "internalType": "uint256",
          "name": "campaignId",
          "type": "uint256"
        },
        {
          "internalType": "uint256",
          "name": "candidateId",
          "type": "uint256"
        }
      ],
      "name": "vote",
      "outputs": [],
      "stateMutability": "payable",
      "type": "function",
      "payable": true
    }
  ],
  "bytecode": "0x608060405234801561001057600080fd5b50336000806101000a81548173ffffffffffffffffffffffffffffffffffffffff021916908373ffffffffffffffffffffffffffffffffffffffff160217905550611313806100606000396000f3fe60806040526004361061009c5760003560e01c80636670a73e116100645780636670a73e146101985780637de14242146101d55780638da5cb5b14610212578063983b325b1461023d578063b384abef1461027a578063db60dbed146102965761009c565b8063141961bc146100a1578063202e7be4146100de57806341403d3014610107578063425458251461013057806344c89b651461016d575b600080fd5b3480156100ad57600080fd5b506100c860048036038101906100c39190610cda565b6102d3565b6040516100d59190610f82565b60405180910390f35b3480156100ea57600080fd5b5061010560048036038101906101009190610c99565b610373565b005b34801561011357600080fd5b5061012e60048036038101906101299190610d03565b610480565b005b34801561013c57600080fd5b5061015760048036038101906101529190610c5d565b61067d565b6040516101649190610f67565b60405180910390f35b34801561017957600080fd5b506101826106ac565b60405161018f9190611074565b60405180910390f35b3480156101a457600080fd5b506101bf60048036038101906101ba9190610cda565b6106b2565b6040516101cc9190611074565b60405180910390f35b3480156101e157600080fd5b506101fc60048036038101906101f79190610d6a565b6106ca565b6040516102099190610f4c565b60405180910390f35b34801561021e57600080fd5b5061022761070c565b6040516102349190610f4c565b60405180910390f35b34801561024957600080fd5b50610264600480360381019061025f9190610d6a565b610730565b6040516102719190610f82565b60405180910390f35b610294600480360381019061028f9190610d6a565b6107dd565b005b3480156102a257600080fd5b506102bd60048036038101906102b89190610d6a565b610b03565b6040516102ca9190611074565b60405180910390f35b600160205280600052604060002060009150905080546102f290611196565b80601f016020809104026020016040519081016040528092919081815260200182805461031e90611196565b801561036b5780601f106103405761010080835404028352916020019161036b565b820191906000526020600020905b81548152906001019060200180831161034e57829003601f168201915b505050505081565b60008054906101000a900473ffffffffffffffffffffffffffffffffffffffff1673ffffffffffffffffffffffffffffffffffffffff163373ffffffffffffffffffffffffffffffffffffffff1614610401576040517f08c379a00000000000000000000000000000000000000000000000000000000081526004016103f890610fd4565b60405180910390fd5b60026000815480929190610414906111c8565b9190505550806001600060025481526020019081526020016000209080519060200190610442929190610b28565b506002547fc045b9f06a1883b478c888324e0d2dc52cc055860f319e93d4869d559f13e889826040516104759190610f82565b60405180910390a250565b60008054906101000a900473ffffffffffffffffffffffffffffffffffffffff1673ffffffffffffffffffffffffffffffffffffffff163373ffffffffffffffffffffffffffffffffffffffff161461050e576040517f08c379a000000000000000000000000000000000000000000000000000000000815260040161050590610fd4565b60405180910390fd5b60008311801561052057506002548311155b61055f576040517f08c379a000000000000000000000000000000000000000000000000000000000815260040161055690610ff4565b60405180910390fd5b600360008481526020019081526020016000206000815480929190610583906111c8565b91905055506000600360008581526020019081526020016000205490508160046000868152602001908152602001600020600083815260200190815260200160002060006101000a81548173ffffffffffffffffffffffffffffffffffffffff021916908373ffffffffffffffffffffffffffffffffffffffff16021790555082600560008681526020019081526020016000206000838152602001908152602001600020908051906020019061063b929190610b28565b5080847f215b7e673452bf74f22ff23e0ceae9bb39a67a2ab41e8213510b47f2dafda7db858560405161066f929190610fa4565b60405180910390a350505050565b60066020528160005260406000206020528060005260406000206000915091509054906101000a900460ff1681565b60025481565b60036020528060005260406000206000915090505481565b60046020528160005260406000206020528060005260406000206000915091509054906101000a900473ffffffffffffffffffffffffffffffffffffffff1681565b60008054906101000a900473ffffffffffffffffffffffffffffffffffffffff1681565b600560205281600052604060002060205280600052604060002060009150915050805461075c90611196565b80601f016020809104026020016040519081016040528092919081815260200182805461078890611196565b80156107d55780601f106107aa576101008083540402835291602001916107d5565b820191906000526020600020905b8154815290600101906020018083116107b857829003601f168201915b505050505081565b670de0b6b3a76400003414610827576040517f08c379a000000000000000000000000000000000000000000000000000000000815260040161081e90611054565b60405180910390fd5b600660003373ffffffffffffffffffffffffffffffffffffffff1673ffffffffffffffffffffffffffffffffffffffff168152602001908152602001600020600083815260200190815260200160002060009054906101000a900460ff16156108c5576040517f08c379a00000000000000000000000000000000000000000000000000000000081526004016108bc90611014565b60405180910390fd5b6000821180156108d757506002548211155b610916576040517f08c379a000000000000000000000000000000000000000000000000000000000815260040161090d90610ff4565b60405180910390fd5b600060046000848152602001908152602001600020600083815260200190815260200160002060009054906101000a900473ffffffffffffffffffffffffffffffffffffffff169050600073ffffffffffffffffffffffffffffffffffffffff168173ffffffffffffffffffffffffffffffffffffffff1614156109cf576040517f08c379a00000000000000000000000000000000000000000000000000000000081526004016109c690611034565b60405180910390fd5b6001600660003373ffffffffffffffffffffffffffffffffffffffff1673ffffffffffffffffffffffffffffffffffffffff168152602001908152602001600020600085815260200190815260200160002060006101000a81548160ff0219169083151502179055506007600084815260200190815260200160002060008381526020019081526020016000206000815480929190610a6d906111c8565b91905055508073ffffffffffffffffffffffffffffffffffffffff166108fc349081150290604051600060405180830381858888f19350505050158015610ab8573d6000803e3d6000fd5b503373ffffffffffffffffffffffffffffffffffffffff1682847f7fe1d4e6b34e228b5dc059fcdc037c71b216fb2417f47c171e505144a5e4f5fc60405160405180910390a4505050565b6007602052816000526040600020602052806000526040600020600091509150505481565b828054610b3490611196565b90600052602060002090601f016020900481019282610b565760008555610b9d565b82601f10610b6f57805160ff1916838001178555610b9d565b82800160010185558215610b9d579182015b82811115610b9c578251825591602001919060010190610b81565b5b509050610baa9190610bae565b5090565b5b80821115610bc7576000816000905550600101610baf565b5090565b6000610bde610bd9846110c0565b61108f565b905082815260208101848484011115610bf657600080fd5b610c01848285611154565b509392505050565b600081359050610c18816112af565b92915050565b600082601f830112610c2f57600080fd5b8135610c3f848260208601610bcb565b91505092915050565b600081359050610c57816112c6565b92915050565b60008060408385031215610c7057600080fd5b6000610c7e85828601610c09565b9250506020610c8f85828601610c48565b9150509250929050565b600060208284031215610cab57600080fd5b600082013567ffffffffffffffff811115610cc557600080fd5b610cd184828501610c1e565b91505092915050565b600060208284031215610cec57600080fd5b6000610cfa84828501610c48565b91505092915050565b600080600060608486031215610d1857600080fd5b6000610d2686828701610c48565b935050602084013567ffffffffffffffff811115610d4357600080fd5b610d4f86828701610c1e565b9250506040610d6086828701610c09565b9150509250925092565b60008060408385031215610d7d57600080fd5b6000610d8b85828601610c48565b9250506020610d9c85828601610c48565b9150509250929050565b610daf8161110c565b82525050565b610dbe8161111e565b82525050565b6000610dcf826110f0565b610dd981856110fb565b9350610de9818560208601611163565b610df28161129e565b840191505092915050565b6000610e0a6013836110fb565b91507f4f6e6c79206f776e65722063616e2063616c6c000000000000000000000000006000830152602082019050919050565b6000610e4a6010836110fb565b91507f496e76616c69642063616d706169676e000000000000000000000000000000006000830152602082019050919050565b6000610e8a600d836110fb565b91507f416c726561647920766f746564000000000000000000000000000000000000006000830152602082019050919050565b6000610eca6011836110fb565b91507f496e76616c69642063616e6469646174650000000000000000000000000000006000830152602082019050919050565b6000610f0a601f836110fb565b91507f4d7573742073656e642065786163746c7920312045544820746f20766f7465006000830152602082019050919050565b610f468161114a565b82525050565b6000602082019050610f616000830184610da6565b92915050565b6000602082019050610f7c6000830184610db5565b92915050565b60006020820190508181036000830152610f9c8184610dc4565b905092915050565b60006040820190508181036000830152610fbe8185610dc4565b9050610fcd6020830184610da6565b9392505050565b60006020820190508181036000830152610fed81610dfd565b9050919050565b6000602082019050818103600083015261100d81610e3d565b9050919050565b6000602082019050818103600083015261102d81610e7d565b9050919050565b6000602082019050818103600083015261104d81610ebd565b9050919050565b6000602082019050818103600083015261106d81610efd565b9050919050565b60006020820190506110896000830184610f3d565b92915050565b6000604051905081810181811067ffffffffffffffff821117156110b6576110b561126f565b5b8060405250919050565b600067ffffffffffffffff8211156110db576110da61126f565b5b601f19601f8301169050602081019050919050565b600081519050919050565b600082825260208201905092915050565b60006111178261112a565b9050919050565b60008115159050919050565b600073ffffffffffffffffffffffffffffffffffffffff82169050919050565b6000819050919050565b82818337600083830152505050565b60005b83811015611181578082015181840152602081019050611166565b83811115611190576000848401525b50505050565b600060028204905060018216806111ae57607f821691505b602082108114156111c2576111c1611240565b5b50919050565b60006111d38261114a565b91507fffffffffffffffffffffffffffffffffffffffffffffffffffffffffffffffff82141561120657611205611211565b5b600182019050919050565b7f4e487b7100000000000000000000000000000000000000000000000000000000600052601160045260246000fd5b7f4e487b7100000000000000000000000000000000000000000000000000000000600052602260045260246000fd5b7f4e487b7100000000000000000000000000000000000000000000000000000000600052604160045260246000fd5b6000601f19601f8301169050919050565b6112b88161110c565b81146112c357600080fd5b50565b6112cf8161114a565b81146112da57600080fd5b5056fea2646970667358221220631a9f688ef5d960a424586909900abfd38c99b136944d87e9ce482c2b37b8a664736f6c63430008000033",
  "immutableReferences": {},
  "source": "// SPDX-License-Identifier: MIT\r\npragma solidity ^0.8.0;\r\n\r\ncontract VotingSystem {\r\n    address public owner;\r\n\r\n    mapping(uint256 => string) public campaigns;\r\n    uint256 public campaignsCount;\r\n\r\n    mapping(uint256 => uint256) public candidatesCount;\r\n    mapping(uint256 => mapping(uint256 => address)) public candidates;\r\n    mapping(uint256 => mapping(uint256 => string)) public candidateNames;\r\n    mapping(address => mapping(uint256 => bool)) public hasVoted;\r\n    mapping(uint256 => mapping(uint256 => uint256)) public candidateVotes;\r\n\r\n    event CampaignAdded(uint256 indexed campaignId, string name);\r\n    event CandidateAdded(uint256 indexed campaignId, uint256 indexed candidateId, string name, address wallet);\r\n    event VoteCast(uint256 indexed campaignId, uint256 indexed candidateId, address indexed voter);\r\n\r\n    modifier onlyOwner() {\r\n        require(msg.sender == owner, \"Only owner can call\");\r\n        _;\r\n    }\r\n\r\n    constructor() {\r\n        owner = msg.sender;\r\n    }\r\n\r\n    function addCampaign(string memory name) external onlyOwner {\r\n        campaignsCount++;\r\n        campaigns[campaignsCount] = name;\r\n        emit CampaignAdded(campaignsCount, name);\r\n    }\r\n\r\n    function addCandidate(uint256 campaignId, string memory name, address candidateWallet) external onlyOwner {\r\n        require(campaignId > 0 && campaignId <= campaignsCount, \"Invalid campaign\");\r\n\r\n        candidatesCount[campaignId]++;\r\n        uint256 candidateId = candidatesCount[campaignId];\r\n\r\n        candidates[campaignId][candidateId] = candidateWallet;\r\n        candidateNames[campaignId][candidateId] = name;\r\n\r\n        emit CandidateAdded(campaignId, candidateId, name, candidateWallet);\r\n    }\r\n\r\n    function vote(uint256 campaignId, uint256 candidateId) external payable {\r\n        require(msg.value == 1 ether, \"Must send exactly 1 ETH to vote\");\r\n        require(!hasVoted[msg.sender][campaignId], \"Already voted\");\r\n        require(campaignId > 0 && campaignId <= campaignsCount, \"Invalid campaign\");\r\n\r\n        address candidateWallet = candidates[campaignId][candidateId];\r\n        require(candidateWallet != address(0), \"Invalid candidate\");\r\n\r\n        hasVoted[msg.sender][campaignId] = true;\r\n        candidateVotes[campaignId][candidateId]++;\r\n        payable(candidateWallet).transfer(msg.value);\r\n\r\n        emit VoteCast(campaignId, candidateId, msg.sender);\r\n    }\r\n}\r\n",
  "sourcePath": "C:\\Users\\merce\\Desktop\\Decentralized-Online-Voting-System\\truffle\\contracts\\Voting.sol",
  "compiler": {
    "name": "solc",
    "version": "0.8.0+commit.c7dfd78e.Emscripten.clang"
  },
  "schemaVersion": "3.4.16",
  "updatedAt": "2025-07-03T11:33:42.001Z",
  "networkType": "ethereum",
  "devdoc": {
    "kind": "dev",
    "methods": {},
    "version": 1
  },
  "userdoc": {
    "kind": "user",
    "methods": {},
    "version": 1
  }
}