{
  "contractName": "VotingSystem",
  "abi": [
    {
      "inputs": [],
      "stateMutability": "nonpayable",
      "type": "constructor"
    },
    {
      "anonymous": false,
      "inputs": [
        {
          "indexed": true,
          "internalType": "uint256",
          "name": "campaignId",
          "type": "uint256"
        },
        {
          "indexed": false,
          "internalType": "string",
          "name": "name",
          "type": "string"
        }
      ],
      "name": "CampaignAdded",
      "type": "event"
    },
    {
      "anonymous": false,
      "inputs": [
        {
          "indexed": true,
          "internalType": "uint256",
          "name": "campaignId",
          "type": "uint256"
        },
        {
          "indexed": true,
          "internalType": "uint256",
          "name": "candidateId",
          "type": "uint256"
        },
        {
          "indexed": false,
          "internalType": "string",
          "name": "name",
          "type": "string"
        },
        {
          "indexed": false,
          "internalType": "address",
          "name": "wallet",
          "type": "address"
        }
      ],
      "name": "CandidateAdded",
      "type": "event"
    },
    {
      "anonymous": false,
      "inputs": [
        {
          "indexed": true,
          "internalType": "uint256",
          "name": "campaignId",
          "type": "uint256"
        },
        {
          "indexed": true,
          "internalType": "uint256",
          "name": "candidateId",
          "type": "uint256"
        },
        {
          "indexed": true,
          "internalType": "address",
          "name": "voter",
          "type": "address"
        },
        {
          "indexed": false,
          "internalType": "uint256",
          "name": "totalVotes",
          "type": "uint256"
        }
      ],
      "name": "VoteCast",
      "type": "event"
    },
    {
      "inputs": [
        {
          "internalType": "uint256",
          "name": "",
          "type": "uint256"
        }
      ],
      "name": "campaigns",
      "outputs": [
        {
          "internalType": "string",
          "name": "",
          "type": "string"
        }
      ],
      "stateMutability": "view",
      "type": "function",
      "constant": true
    },
    {
      "inputs": [],
      "name": "campaignsCount",
      "outputs": [
        {
          "internalType": "uint256",
          "name": "",
          "type": "uint256"
        }
      ],
      "stateMutability": "view",
      "type": "function",
      "constant": true
    },
    {
      "inputs": [
        {
          "internalType": "uint256",
          "name": "",
          "type": "uint256"
        },
        {
          "internalType": "uint256",
          "name": "",
          "type": "uint256"
        }
      ],
      "name": "candidateNames",
      "outputs": [
        {
          "internalType": "string",
          "name": "",
          "type": "string"
        }
      ],
      "stateMutability": "view",
      "type": "function",
      "constant": true
    },
    {
      "inputs": [
        {
          "internalType": "uint256",
          "name": "",
          "type": "uint256"
        },
        {
          "internalType": "uint256",
          "name": "",
          "type": "uint256"
        }
      ],
      "name": "candidateVotes",
      "outputs": [
        {
          "internalType": "uint256",
          "name": "",
          "type": "uint256"
        }
      ],
      "stateMutability": "view",
      "type": "function",
      "constant": true
    },
    {
      "inputs": [
        {
          "internalType": "uint256",
          "name": "",
          "type": "uint256"
        },
        {
          "internalType": "uint256",
          "name": "",
          "type": "uint256"
        }
      ],
      "name": "candidates",
      "outputs": [
        {
          "internalType": "address",
          "name": "",
          "type": "address"
        }
      ],
      "stateMutability": "view",
      "type": "function",
      "constant": true
    },
    {
      "inputs": [
        {
          "internalType": "uint256",
          "name": "",
          "type": "uint256"
        }
      ],
      "name": "candidatesCount",
      "outputs": [
        {
          "internalType": "uint256",
          "name": "",
          "type": "uint256"
        }
      ],
      "stateMutability": "view",
      "type": "function",
      "constant": true
    },
    {
      "inputs": [
        {
          "internalType": "address",
          "name": "",
          "type": "address"
        },
        {
          "internalType": "uint256",
          "name": "",
          "type": "uint256"
        }
      ],
      "name": "hasVoted",
      "outputs": [
        {
          "internalType": "bool",
          "name": "",
          "type": "bool"
        }
      ],
      "stateMutability": "view",
      "type": "function",
      "constant": true
    },
    {
      "inputs": [],
      "name": "owner",
      "outputs": [
        {
          "internalType": "address",
          "name": "",
          "type": "address"
        }
      ],
      "stateMutability": "view",
      "type": "function",
      "constant": true
    },
    {
      "inputs": [
        {
          "internalType": "string",
          "name": "name",
          "type": "string"
        }
      ],
      "name": "addCampaign",
      "outputs": [],
      "stateMutability": "nonpayable",
      "type": "function"
    },
    {
      "inputs": [
        {
          "internalType": "uint256",
          "name": "campaignId",
          "type": "uint256"
        },
        {
          "internalType": "string",
          "name": "name",
          "type": "string"
        },
        {
          "internalType": "address",
          "name": "candidateWallet",
          "type": "address"
        }
      ],
      "name": "addCandidate",
      "outputs": [],
      "stateMutability": "nonpayable",
      "type": "function"
    },
    {
      "inputs": [
        {
          "internalType": "uint256",
          "name": "campaignId",
          "type": "uint256"
        },
        {
          "internalType": "uint256",
          "name": "candidateId",
          "type": "uint256"
        }
      ],
      "name": "vote",
      "outputs": [],
      "stateMutability": "payable",
      "type": "function",
      "payable": true
    },
    {
      "inputs": [
        {
          "internalType": "uint256",
          "name": "campaignId",
          "type": "uint256"
        }
      ],
      "name": "getCampaign",
      "outputs": [
        {
          "internalType": "string",
          "name": "name",
          "type": "string"
        },
        {
          "internalType": "uint256",
          "name": "totalCandidates",
          "type": "uint256"
        }
      ],
      "stateMutability": "view",
      "type": "function",
      "constant": true
    },
    {
      "inputs": [
        {
          "internalType": "uint256",
          "name": "campaignId",
          "type": "uint256"
        },
        {
          "internalType": "uint256",
          "name": "candidateId",
          "type": "uint256"
        }
      ],
      "name": "getCandidate",
      "outputs": [
        {
          "internalType": "string",
          "name": "name",
          "type": "string"
        },
        {
          "internalType": "address",
          "name": "wallet",
          "type": "address"
        },
        {
          "internalType": "uint256",
          "name": "voteCount",
          "type": "uint256"
        }
      ],
      "stateMutability": "view",
      "type": "function",
      "constant": true
    },
    {
      "inputs": [
        {
          "internalType": "address",
          "name": "user",
          "type": "address"
        },
        {
          "internalType": "uint256",
          "name": "campaignId",
          "type": "uint256"
        }
      ],
      "name": "hasUserVoted",
      "outputs": [
        {
          "internalType": "bool",
          "name": "",
          "type": "bool"
        }
      ],
      "stateMutability": "view",
      "type": "function",
      "constant": true
    }
  ],
  "bytecode": "0x608060405234801561001057600080fd5b50336000806101000a81548173ffffffffffffffffffffffffffffffffffffffff021916908373ffffffffffffffffffffffffffffffffffffffff1602179055506117a9806100606000396000f3fe6080604052600436106100dd5760003560e01c80636670a73e1161007f578063983b325b11610059578063983b325b146102fb578063b384abef14610338578063d46f96ed14610354578063db60dbed14610391576100dd565b80636670a73e146102565780637de14242146102935780638da5cb5b146102d0576100dd565b806342545825116100bb578063425458251461017157806344c89b65146101ae5780634bd46448146101d95780635598f8cc14610218576100dd565b8063141961bc146100e2578063202e7be41461011f57806341403d3014610148575b600080fd5b3480156100ee57600080fd5b5061010960048036038101906101049190611102565b6103ce565b60405161011691906113aa565b60405180910390f35b34801561012b57600080fd5b50610146600480360381019061014191906110c1565b61046e565b005b34801561015457600080fd5b5061016f600480360381019061016a919061112b565b61057b565b005b34801561017d57600080fd5b5061019860048036038101906101939190611085565b61077a565b6040516101a5919061138f565b60405180910390f35b3480156101ba57600080fd5b506101c36107a9565b6040516101d0919061150a565b60405180910390f35b3480156101e557600080fd5b5061020060048036038101906101fb9190611192565b6107af565b60405161020f939291906113fc565b60405180910390f35b34801561022457600080fd5b5061023f600480360381019061023a9190611102565b61092e565b60405161024d92919061143a565b60405180910390f35b34801561026257600080fd5b5061027d60048036038101906102789190611102565b610a41565b60405161028a919061150a565b60405180910390f35b34801561029f57600080fd5b506102ba60048036038101906102b59190611192565b610a59565b6040516102c79190611374565b60405180910390f35b3480156102dc57600080fd5b506102e5610a9b565b6040516102f29190611374565b60405180910390f35b34801561030757600080fd5b50610322600480360381019061031d9190611192565b610abf565b60405161032f91906113aa565b60405180910390f35b610352600480360381019061034d9190611192565b610b6c565b005b34801561036057600080fd5b5061037b60048036038101906103769190611085565b610ec3565b604051610388919061138f565b60405180910390f35b34801561039d57600080fd5b506103b860048036038101906103b39190611192565b610f2b565b6040516103c5919061150a565b60405180910390f35b600160205280600052604060002060009150905080546103ed9061162c565b80601f01602080910402602001604051908101604052809291908181526020018280546104199061162c565b80156104665780601f1061043b57610100808354040283529160200191610466565b820191906000526020600020905b81548152906001019060200180831161044957829003601f168201915b505050505081565b60008054906101000a900473ffffffffffffffffffffffffffffffffffffffff1673ffffffffffffffffffffffffffffffffffffffff163373ffffffffffffffffffffffffffffffffffffffff16146104fc576040517f08c379a00000000000000000000000000000000000000000000000000000000081526004016104f39061146a565b60405180910390fd5b6002600081548092919061050f9061165e565b919050555080600160006002548152602001908152602001600020908051906020019061053d929190610f50565b506002547fc045b9f06a1883b478c888324e0d2dc52cc055860f319e93d4869d559f13e8898260405161057091906113aa565b60405180910390a250565b60008054906101000a900473ffffffffffffffffffffffffffffffffffffffff1673ffffffffffffffffffffffffffffffffffffffff163373ffffffffffffffffffffffffffffffffffffffff1614610609576040517f08c379a00000000000000000000000000000000000000000000000000000000081526004016106009061146a565b60405180910390fd5b8260008111801561061c57506002548111155b61065b576040517f08c379a00000000000000000000000000000000000000000000000000000000081526004016106529061148a565b60405180910390fd5b60036000858152602001908152602001600020600081548092919061067f9061165e565b91905055506000600360008681526020019081526020016000205490508260046000878152602001908152602001600020600083815260200190815260200160002060006101000a81548173ffffffffffffffffffffffffffffffffffffffff021916908373ffffffffffffffffffffffffffffffffffffffff160217905550836005600087815260200190815260200160002060008381526020019081526020016000209080519060200190610737929190610f50565b5080857f215b7e673452bf74f22ff23e0ceae9bb39a67a2ab41e8213510b47f2dafda7db868660405161076b9291906113cc565b60405180910390a35050505050565b60066020528160005260406000206020528060005260406000206000915091509054906101000a900460ff1681565b60025481565b6060600080846000811180156107c757506002548111155b610806576040517f08c379a00000000000000000000000000000000000000000000000000000000081526004016107fd9061148a565b60405180910390fd5b60056000878152602001908152602001600020600086815260200190815260200160002060046000888152602001908152602001600020600087815260200190815260200160002060009054906101000a900473ffffffffffffffffffffffffffffffffffffffff16600760008981526020019081526020016000206000888152602001908152602001600020548280546108a09061162c565b80601f01602080910402602001604051908101604052809291908181526020018280546108cc9061162c565b80156109195780601f106108ee57610100808354040283529160200191610919565b820191906000526020600020905b8154815290600101906020018083116108fc57829003601f168201915b50505050509250935093509350509250925092565b606060008260008111801561094557506002548111155b610984576040517f08c379a000000000000000000000000000000000000000000000000000000000815260040161097b9061148a565b60405180910390fd5b6001600085815260200190815260200160002060036000868152602001908152602001600020548180546109b79061162c565b80601f01602080910402602001604051908101604052809291908181526020018280546109e39061162c565b8015610a305780601f10610a0557610100808354040283529160200191610a30565b820191906000526020600020905b815481529060010190602001808311610a1357829003601f168201915b505050505091509250925050915091565b60036020528060005260406000206000915090505481565b60046020528160005260406000206020528060005260406000206000915091509054906101000a900473ffffffffffffffffffffffffffffffffffffffff1681565b60008054906101000a900473ffffffffffffffffffffffffffffffffffffffff1681565b6005602052816000526040600020602052806000526040600020600091509150508054610aeb9061162c565b80601f0160208091040260200160405190810160405280929190818152602001828054610b179061162c565b8015610b645780601f10610b3957610100808354040283529160200191610b64565b820191906000526020600020905b815481529060010190602001808311610b4757829003601f168201915b505050505081565b81600081118015610b7f57506002548111155b610bbe576040517f08c379a0000000000000000000000000000000000000000000000000000000008152600401610bb59061148a565b60405180910390fd5b670de0b6b3a76400003414610c08576040517f08c379a0000000000000000000000000000000000000000000000000000000008152600401610bff906114ea565b60405180910390fd5b600660003373ffffffffffffffffffffffffffffffffffffffff1673ffffffffffffffffffffffffffffffffffffffff168152602001908152602001600020600084815260200190815260200160002060009054906101000a900460ff1615610ca6576040517f08c379a0000000000000000000000000000000000000000000000000000000008152600401610c9d906114aa565b60405180910390fd5b600060046000858152602001908152602001600020600084815260200190815260200160002060009054906101000a900473ffffffffffffffffffffffffffffffffffffffff169050600073ffffffffffffffffffffffffffffffffffffffff168173ffffffffffffffffffffffffffffffffffffffff161415610d5f576040517f08c379a0000000000000000000000000000000000000000000000000000000008152600401610d56906114ca565b60405180910390fd5b6001600660003373ffffffffffffffffffffffffffffffffffffffff1673ffffffffffffffffffffffffffffffffffffffff168152602001908152602001600020600086815260200190815260200160002060006101000a81548160ff0219169083151502179055506007600085815260200190815260200160002060008481526020019081526020016000206000815480929190610dfd9061165e565b91905055508073ffffffffffffffffffffffffffffffffffffffff166108fc349081150290604051600060405180830381858888f19350505050158015610e48573d6000803e3d6000fd5b503373ffffffffffffffffffffffffffffffffffffffff1683857ff6ed5a0362706e33942c258dd867d1664e91a7653843a7c3459a857db97287ae60076000898152602001908152602001600020600088815260200190815260200160002054604051610eb5919061150a565b60405180910390a450505050565b6000600660008473ffffffffffffffffffffffffffffffffffffffff1673ffffffffffffffffffffffffffffffffffffffff168152602001908152602001600020600083815260200190815260200160002060009054906101000a900460ff16905092915050565b6007602052816000526040600020602052806000526040600020600091509150505481565b828054610f5c9061162c565b90600052602060002090601f016020900481019282610f7e5760008555610fc5565b82601f10610f9757805160ff1916838001178555610fc5565b82800160010185558215610fc5579182015b82811115610fc4578251825591602001919060010190610fa9565b5b509050610fd29190610fd6565b5090565b5b80821115610fef576000816000905550600101610fd7565b5090565b600061100661100184611556565b611525565b90508281526020810184848401111561101e57600080fd5b6110298482856115ea565b509392505050565b60008135905061104081611745565b92915050565b600082601f83011261105757600080fd5b8135611067848260208601610ff3565b91505092915050565b60008135905061107f8161175c565b92915050565b6000806040838503121561109857600080fd5b60006110a685828601611031565b92505060206110b785828601611070565b9150509250929050565b6000602082840312156110d357600080fd5b600082013567ffffffffffffffff8111156110ed57600080fd5b6110f984828501611046565b91505092915050565b60006020828403121561111457600080fd5b600061112284828501611070565b91505092915050565b60008060006060848603121561114057600080fd5b600061114e86828701611070565b935050602084013567ffffffffffffffff81111561116b57600080fd5b61117786828701611046565b925050604061118886828701611031565b9150509250925092565b600080604083850312156111a557600080fd5b60006111b385828601611070565b92505060206111c485828601611070565b9150509250929050565b6111d7816115a2565b82525050565b6111e6816115b4565b82525050565b60006111f782611586565b6112018185611591565b93506112118185602086016115f9565b61121a81611734565b840191505092915050565b6000611232601383611591565b91507f4f6e6c79206f776e65722063616e2063616c6c000000000000000000000000006000830152602082019050919050565b6000611272601083611591565b91507f496e76616c69642063616d706169676e000000000000000000000000000000006000830152602082019050919050565b60006112b2600d83611591565b91507f416c726561647920766f746564000000000000000000000000000000000000006000830152602082019050919050565b60006112f2601183611591565b91507f496e76616c69642063616e6469646174650000000000000000000000000000006000830152602082019050919050565b6000611332601f83611591565b91507f4d7573742073656e642065786163746c7920312045544820746f20766f7465006000830152602082019050919050565b61136e816115e0565b82525050565b600060208201905061138960008301846111ce565b92915050565b60006020820190506113a460008301846111dd565b92915050565b600060208201905081810360008301526113c481846111ec565b905092915050565b600060408201905081810360008301526113e681856111ec565b90506113f560208301846111ce565b9392505050565b6000606082019050818103600083015261141681866111ec565b905061142560208301856111ce565b6114326040830184611365565b949350505050565b6000604082019050818103600083015261145481856111ec565b90506114636020830184611365565b9392505050565b6000602082019050818103600083015261148381611225565b9050919050565b600060208201905081810360008301526114a381611265565b9050919050565b600060208201905081810360008301526114c3816112a5565b9050919050565b600060208201905081810360008301526114e3816112e5565b9050919050565b6000602082019050818103600083015261150381611325565b9050919050565b600060208201905061151f6000830184611365565b92915050565b6000604051905081810181811067ffffffffffffffff8211171561154c5761154b611705565b5b8060405250919050565b600067ffffffffffffffff82111561157157611570611705565b5b601f19601f8301169050602081019050919050565b600081519050919050565b600082825260208201905092915050565b60006115ad826115c0565b9050919050565b60008115159050919050565b600073ffffffffffffffffffffffffffffffffffffffff82169050919050565b6000819050919050565b82818337600083830152505050565b60005b838110156116175780820151818401526020810190506115fc565b83811115611626576000848401525b50505050565b6000600282049050600182168061164457607f821691505b60208210811415611658576116576116d6565b5b50919050565b6000611669826115e0565b91507fffffffffffffffffffffffffffffffffffffffffffffffffffffffffffffffff82141561169c5761169b6116a7565b5b600182019050919050565b7f4e487b7100000000000000000000000000000000000000000000000000000000600052601160045260246000fd5b7f4e487b7100000000000000000000000000000000000000000000000000000000600052602260045260246000fd5b7f4e487b7100000000000000000000000000000000000000000000000000000000600052604160045260246000fd5b6000601f19601f8301169050919050565b61174e816115a2565b811461175957600080fd5b50565b611765816115e0565b811461177057600080fd5b5056fea26469706673582212209b3c9c1d8d60ef5df33574a1a10db1face6d4b422d940c21a9cb0f702231eaf464736f6c63430008000033",
  "immutableReferences": {},
  "source": "// SPDX-License-Identifier: MIT\r\npragma solidity ^0.8.0;\r\n\r\ncontract VotingSystem {\r\n    address public owner;\r\n\r\n    mapping(uint256 => string) public campaigns;\r\n    uint256 public campaignsCount;\r\n\r\n    mapping(uint256 => uint256) public candidatesCount;\r\n    mapping(uint256 => mapping(uint256 => address)) public candidates;\r\n    mapping(uint256 => mapping(uint256 => string)) public candidateNames;\r\n    mapping(address => mapping(uint256 => bool)) public hasVoted;\r\n    mapping(uint256 => mapping(uint256 => uint256)) public candidateVotes;\r\n\r\n    event CampaignAdded(uint256 indexed campaignId, string name);\r\n    event CandidateAdded(uint256 indexed campaignId, uint256 indexed candidateId, string name, address wallet);\r\n    event VoteCast(uint256 indexed campaignId, uint256 indexed candidateId, address indexed voter, uint256 totalVotes);\r\n\r\n    modifier onlyOwner() {\r\n        require(msg.sender == owner, \"Only owner can call\");\r\n        _;\r\n    }\r\n\r\n    modifier campaignExists(uint256 campaignId) {\r\n        require(campaignId > 0 && campaignId <= campaignsCount, \"Invalid campaign\");\r\n        _;\r\n    }\r\n\r\n    constructor() {\r\n        owner = msg.sender;\r\n    }\r\n\r\n    function addCampaign(string memory name) external onlyOwner {\r\n        campaignsCount++;\r\n        campaigns[campaignsCount] = name;\r\n        emit CampaignAdded(campaignsCount, name);\r\n    }\r\n\r\n    function addCandidate(\r\n        uint256 campaignId,\r\n        string memory name,\r\n        address candidateWallet\r\n    ) external onlyOwner campaignExists(campaignId) {\r\n        candidatesCount[campaignId]++;\r\n        uint256 candidateId = candidatesCount[campaignId];\r\n\r\n        candidates[campaignId][candidateId] = candidateWallet;\r\n        candidateNames[campaignId][candidateId] = name;\r\n\r\n        emit CandidateAdded(campaignId, candidateId, name, candidateWallet);\r\n    }\r\n\r\n    function vote(uint256 campaignId, uint256 candidateId) external payable campaignExists(campaignId) {\r\n        require(msg.value == 1 ether, \"Must send exactly 1 ETH to vote\");\r\n        require(!hasVoted[msg.sender][campaignId], \"Already voted\");\r\n\r\n        address candidateWallet = candidates[campaignId][candidateId];\r\n        require(candidateWallet != address(0), \"Invalid candidate\");\r\n\r\n        hasVoted[msg.sender][campaignId] = true;\r\n        candidateVotes[campaignId][candidateId]++;\r\n        payable(candidateWallet).transfer(msg.value);\r\n\r\n        emit VoteCast(campaignId, candidateId, msg.sender, candidateVotes[campaignId][candidateId]);\r\n    }\r\n\r\n    //  View functions for frontend\r\n\r\n    function getCampaign(uint256 campaignId) external view campaignExists(campaignId) returns (string memory name, uint256 totalCandidates) {\r\n        return (campaigns[campaignId], candidatesCount[campaignId]);\r\n    }\r\n\r\n    function getCandidate(\r\n        uint256 campaignId,\r\n        uint256 candidateId\r\n    ) external view campaignExists(campaignId) returns (\r\n        string memory name,\r\n        address wallet,\r\n        uint256 voteCount\r\n    ) {\r\n        return (\r\n            candidateNames[campaignId][candidateId],\r\n            candidates[campaignId][candidateId],\r\n            candidateVotes[campaignId][candidateId]\r\n        );\r\n    }\r\n\r\n    function hasUserVoted(address user, uint256 campaignId) external view returns (bool) {\r\n        return hasVoted[user][campaignId];\r\n    }\r\n}\r\n\r\n",
  "sourcePath": "C:\\Users\\CCS\\Desktop\\final_year\\Decentralized-Online-Voting-System\\truffle\\contracts\\Voting.sol",
  "compiler": {
    "name": "solc",
    "version": "0.8.0+commit.c7dfd78e.Emscripten.clang"
  },
  "schemaVersion": "3.4.16",
  "updatedAt": "2025-07-03T18:31:12.790Z",
  "networkType": "ethereum",
  "devdoc": {
    "kind": "dev",
    "methods": {},
    "version": 1
  },
  "userdoc": {
    "kind": "user",
    "methods": {},
    "version": 1
  }
}