{
  "contractName": "Voting",
  "abi": [
    {
      "inputs": [],
      "stateMutability": "nonpayable",
      "type": "constructor"
    },
    {
      "inputs": [],
      "name": "admin",
      "outputs": [
        {
          "internalType": "address",
          "name": "",
          "type": "address"
        }
      ],
      "stateMutability": "view",
      "type": "function",
      "constant": true
    },
    {
      "inputs": [
        {
          "internalType": "uint256",
          "name": "",
          "type": "uint256"
        }
      ],
      "name": "candidates",
      "outputs": [
        {
          "internalType": "uint256",
          "name": "id",
          "type": "uint256"
        },
        {
          "internalType": "string",
          "name": "name",
          "type": "string"
        },
        {
          "internalType": "uint256",
          "name": "voteCount",
          "type": "uint256"
        }
      ],
      "stateMutability": "view",
      "type": "function",
      "constant": true
    },
    {
      "inputs": [],
      "name": "candidatesCount",
      "outputs": [
        {
          "internalType": "uint256",
          "name": "",
          "type": "uint256"
        }
      ],
      "stateMutability": "view",
      "type": "function",
      "constant": true
    },
    {
      "inputs": [
        {
          "internalType": "address",
          "name": "",
          "type": "address"
        }
      ],
      "name": "voters",
      "outputs": [
        {
          "internalType": "bool",
          "name": "hasVoted",
          "type": "bool"
        }
      ],
      "stateMutability": "view",
      "type": "function",
      "constant": true
    },
    {
      "inputs": [
        {
          "internalType": "string",
          "name": "_name",
          "type": "string"
        }
      ],
      "name": "addCandidate",
      "outputs": [],
      "stateMutability": "nonpayable",
      "type": "function"
    },
    {
      "inputs": [
        {
          "internalType": "uint256",
          "name": "_candidateId",
          "type": "uint256"
        }
      ],
      "name": "vote",
      "outputs": [],
      "stateMutability": "payable",
      "type": "function",
      "payable": true
    },
    {
      "inputs": [],
      "name": "withdraw",
      "outputs": [],
      "stateMutability": "nonpayable",
      "type": "function"
    }
  ],
  "bytecode": "0x608060405234801561001057600080fd5b50336000806101000a81548173ffffffffffffffffffffffffffffffffffffffff021916908373ffffffffffffffffffffffffffffffffffffffff1602179055506000600181905550610fde806100686000396000f3fe6080604052600436106100705760003560e01c80633ccfd60b1161004e5780633ccfd60b146100fb578063462e91ec14610112578063a3ec138d1461013b578063f851a4401461017857610070565b80630121b93f146100755780632d35a8a2146100915780633477ee2e146100bc575b600080fd5b61008f600480360381019061008a91906106a9565b6101a3565b005b34801561009d57600080fd5b506100a6610358565b6040516100b391906106e5565b60405180910390f35b3480156100c857600080fd5b506100e360048036038101906100de91906106a9565b61035e565b6040516100f293929190610790565b60405180910390f35b34801561010757600080fd5b50610110610410565b005b34801561011e57600080fd5b5061013960048036038101906101349190610903565b610507565b005b34801561014757600080fd5b50610162600480360381019061015d91906109aa565b610610565b60405161016f91906109f2565b60405180910390f35b34801561018457600080fd5b5061018d61063b565b60405161019a9190610a1c565b60405180910390f35b600360003373ffffffffffffffffffffffffffffffffffffffff1673ffffffffffffffffffffffffffffffffffffffff16815260200190815260200160002060000160009054906101000a900460ff1615610233576040517f08c379a000000000000000000000000000000000000000000000000000000000815260040161022a90610a83565b60405180910390fd5b60008111801561024557506001548111155b610284576040517f08c379a000000000000000000000000000000000000000000000000000000000815260040161027b90610aef565b60405180910390fd5b670de0b6b3a764000034146102ce576040517f08c379a00000000000000000000000000000000000000000000000000000000081526004016102c590610b5b565b60405180910390fd5b6001600360003373ffffffffffffffffffffffffffffffffffffffff1673ffffffffffffffffffffffffffffffffffffffff16815260200190815260200160002060000160006101000a81548160ff02191690831515021790555060026000828152602001908152602001600020600201600081548092919061035090610baa565b919050555050565b60015481565b600260205280600052604060002060009150905080600001549080600101805461038790610c21565b80601f01602080910402602001604051908101604052809291908181526020018280546103b390610c21565b80156104005780601f106103d557610100808354040283529160200191610400565b820191906000526020600020905b8154815290600101906020018083116103e357829003601f168201915b5050505050908060020154905083565b60008054906101000a900473ffffffffffffffffffffffffffffffffffffffff1673ffffffffffffffffffffffffffffffffffffffff163373ffffffffffffffffffffffffffffffffffffffff161461049e576040517f08c379a000000000000000000000000000000000000000000000000000000000815260040161049590610c9e565b60405180910390fd5b60008054906101000a900473ffffffffffffffffffffffffffffffffffffffff1673ffffffffffffffffffffffffffffffffffffffff166108fc479081150290604051600060405180830381858888f19350505050158015610504573d6000803e3d6000fd5b50565b60008054906101000a900473ffffffffffffffffffffffffffffffffffffffff1673ffffffffffffffffffffffffffffffffffffffff163373ffffffffffffffffffffffffffffffffffffffff1614610595576040517f08c379a000000000000000000000000000000000000000000000000000000000815260040161058c90610d0a565b60405180910390fd5b600160008154809291906105a890610baa565b91905055506040518060600160405280600154815260200182815260200160008152506002600060015481526020019081526020016000206000820151816000015560208201518160010190816105ff9190610ed6565b506040820151816002015590505050565b60036020528060005260406000206000915090508060000160009054906101000a900460ff16905081565b60008054906101000a900473ffffffffffffffffffffffffffffffffffffffff1681565b6000604051905090565b600080fd5b600080fd5b6000819050919050565b61068681610673565b811461069157600080fd5b50565b6000813590506106a38161067d565b92915050565b6000602082840312156106bf576106be610669565b5b60006106cd84828501610694565b91505092915050565b6106df81610673565b82525050565b60006020820190506106fa60008301846106d6565b92915050565b600081519050919050565b600082825260208201905092915050565b60005b8381101561073a57808201518184015260208101905061071f565b60008484015250505050565b6000601f19601f8301169050919050565b600061076282610700565b61076c818561070b565b935061077c81856020860161071c565b61078581610746565b840191505092915050565b60006060820190506107a560008301866106d6565b81810360208301526107b78185610757565b90506107c660408301846106d6565b949350505050565b600080fd5b600080fd5b7f4e487b7100000000000000000000000000000000000000000000000000000000600052604160045260246000fd5b61081082610746565b810181811067ffffffffffffffff8211171561082f5761082e6107d8565b5b80604052505050565b600061084261065f565b905061084e8282610807565b919050565b600067ffffffffffffffff82111561086e5761086d6107d8565b5b61087782610746565b9050602081019050919050565b82818337600083830152505050565b60006108a66108a184610853565b610838565b9050828152602081018484840111156108c2576108c16107d3565b5b6108cd848285610884565b509392505050565b600082601f8301126108ea576108e96107ce565b5b81356108fa848260208601610893565b91505092915050565b60006020828403121561091957610918610669565b5b600082013567ffffffffffffffff8111156109375761093661066e565b5b610943848285016108d5565b91505092915050565b600073ffffffffffffffffffffffffffffffffffffffff82169050919050565b60006109778261094c565b9050919050565b6109878161096c565b811461099257600080fd5b50565b6000813590506109a48161097e565b92915050565b6000602082840312156109c0576109bf610669565b5b60006109ce84828501610995565b91505092915050565b60008115159050919050565b6109ec816109d7565b82525050565b6000602082019050610a0760008301846109e3565b92915050565b610a168161096c565b82525050565b6000602082019050610a316000830184610a0d565b92915050565b7f416c726561647920766f74656400000000000000000000000000000000000000600082015250565b6000610a6d600d8361070b565b9150610a7882610a37565b602082019050919050565b60006020820190508181036000830152610a9c81610a60565b9050919050565b7f496e76616c69642063616e646964617465204944000000000000000000000000600082015250565b6000610ad960148361070b565b9150610ae482610aa3565b602082019050919050565b60006020820190508181036000830152610b0881610acc565b9050919050565b7f4d7573742073656e642065786163746c7920312045544820746f20766f746500600082015250565b6000610b45601f8361070b565b9150610b5082610b0f565b602082019050919050565b60006020820190508181036000830152610b7481610b38565b9050919050565b7f4e487b7100000000000000000000000000000000000000000000000000000000600052601160045260246000fd5b6000610bb582610673565b91507fffffffffffffffffffffffffffffffffffffffffffffffffffffffffffffffff8203610be757610be6610b7b565b5b600182019050919050565b7f4e487b7100000000000000000000000000000000000000000000000000000000600052602260045260246000fd5b60006002820490506001821680610c3957607f821691505b602082108103610c4c57610c4b610bf2565b5b50919050565b7f4f6e6c792061646d696e2063616e207769746864726177000000000000000000600082015250565b6000610c8860178361070b565b9150610c9382610c52565b602082019050919050565b60006020820190508181036000830152610cb781610c7b565b9050919050565b7f4f6e6c792061646d696e2063616e206164642063616e64696461746573000000600082015250565b6000610cf4601d8361070b565b9150610cff82610cbe565b602082019050919050565b60006020820190508181036000830152610d2381610ce7565b9050919050565b60008190508160005260206000209050919050565b60006020601f8301049050919050565b600082821b905092915050565b600060088302610d8c7fffffffffffffffffffffffffffffffffffffffffffffffffffffffffffffffff82610d4f565b610d968683610d4f565b95508019841693508086168417925050509392505050565b6000819050919050565b6000610dd3610dce610dc984610673565b610dae565b610673565b9050919050565b6000819050919050565b610ded83610db8565b610e01610df982610dda565b848454610d5c565b825550505050565b600090565b610e16610e09565b610e21818484610de4565b505050565b5b81811015610e4557610e3a600082610e0e565b600181019050610e27565b5050565b601f821115610e8a57610e5b81610d2a565b610e6484610d3f565b81016020851015610e73578190505b610e87610e7f85610d3f565b830182610e26565b50505b505050565b600082821c905092915050565b6000610ead60001984600802610e8f565b1980831691505092915050565b6000610ec68383610e9c565b9150826002028217905092915050565b610edf82610700565b67ffffffffffffffff811115610ef857610ef76107d8565b5b610f028254610c21565b610f0d828285610e49565b600060209050601f831160018114610f405760008415610f2e578287015190505b610f388582610eba565b865550610fa0565b601f198416610f4e86610d2a565b60005b82811015610f7657848901518255600182019150602085019450602081019050610f51565b86831015610f935784890151610f8f601f891682610e9c565b8355505b6001600288020188555050505b50505050505056fea2646970667358221220b66c0bcf315d4bfd0801d5f1d05e76c62ac2c9b1dc11d8092b6a2182d0a1984f64736f6c63430008130033",
  "immutableReferences": {},
  "source": "// SPDX-License-Identifier: MIT\r\npragma solidity ^0.8.19;\r\n\r\n// Voting contract for decentralized elections\r\ncontract Voting {\r\n    address public admin;            // Address of the contract admin (deployer)\r\n    uint public candidatesCount;     // Total number of candidates\r\n\r\n    // Structure to represent a candidate\r\n    struct Candidate {\r\n        uint id;                    // Candidate's unique ID\r\n        string name;                // Candidate's name\r\n        uint voteCount;            // Number of votes received\r\n    }\r\n\r\n    // Structure to represent a voter\r\n    struct Voter {\r\n        bool hasVoted;              // Indicates if the voter has already voted\r\n    }\r\n\r\n    mapping(uint => Candidate) public candidates;      // Mapping from candidate ID to Candidate struct\r\n    mapping(address => Voter) public voters;           // Mapping from voter address to Voter struct\r\n\r\n    // Constructor sets the contract deployer as admin and initializes candidate count\r\n    constructor() {\r\n        admin = msg.sender;\r\n        candidatesCount = 0;\r\n    }\r\n\r\n    // Function to add a new candidate (only admin can call)\r\n    function addCandidate(string memory _name) public {\r\n        require(msg.sender == admin, \"Only admin can add candidates\");\r\n        candidatesCount++;\r\n        candidates[candidatesCount] = Candidate(candidatesCount, _name, 0);\r\n    }\r\n\r\n    // Function to cast a vote for a candidate (requires 1 ETH)\r\n    function vote(uint _candidateId) public payable {\r\n        require(!voters[msg.sender].hasVoted, \"Already voted\");\r\n        require(_candidateId > 0 && _candidateId <= candidatesCount, \"Invalid candidate ID\");\r\n        require(msg.value == 1 ether, \"Must send exactly 1 ETH to vote\");\r\n\r\n        voters[msg.sender].hasVoted = true;\r\n        candidates[_candidateId].voteCount++;\r\n    }\r\n\r\n    // Optional: Withdraw all collected Ether (only admin can call)\r\n    function withdraw() public {\r\n        require(msg.sender == admin, \"Only admin can withdraw\");\r\n        payable(admin).transfer(address(this).balance);\r\n    }\r\n}\r\n",
  "sourcePath": "C:\\Users\\CCS\\Desktop\\final_year\\Decentralized-Online-Voting-System\\contracts\\Voting.sol",
  "compiler": {
    "name": "solc",
    "version": "0.8.19+commit.7dd6d404.Emscripten.clang"
  },
  "schemaVersion": "3.4.16",
  "updatedAt": "2025-06-30T07:09:02.065Z",
  "networkType": "ethereum",
  "devdoc": {
    "kind": "dev",
    "methods": {},
    "version": 1
  },
  "userdoc": {
    "kind": "user",
    "methods": {},
    "version": 1
  }
}