{
  "contractName": "Voting",
  "abi": [
    {
      "inputs": [],
      "stateMutability": "nonpayable",
      "type": "constructor"
    },
    {
      "inputs": [],
      "name": "admin",
      "outputs": [
        {
          "internalType": "address",
          "name": "",
          "type": "address"
        }
      ],
      "stateMutability": "view",
      "type": "function",
      "constant": true
    },
    {
      "inputs": [
        {
          "internalType": "uint256",
          "name": "",
          "type": "uint256"
        }
      ],
      "name": "candidates",
      "outputs": [
        {
          "internalType": "uint256",
          "name": "id",
          "type": "uint256"
        },
        {
          "internalType": "string",
          "name": "name",
          "type": "string"
        },
        {
          "internalType": "uint256",
          "name": "voteCount",
          "type": "uint256"
        }
      ],
      "stateMutability": "view",
      "type": "function",
      "constant": true
    },
    {
      "inputs": [],
      "name": "candidatesCount",
      "outputs": [
        {
          "internalType": "uint256",
          "name": "",
          "type": "uint256"
        }
      ],
      "stateMutability": "view",
      "type": "function",
      "constant": true
    },
    {
      "inputs": [
        {
          "internalType": "address",
          "name": "",
          "type": "address"
        }
      ],
      "name": "voters",
      "outputs": [
        {
          "internalType": "bool",
          "name": "hasVoted",
          "type": "bool"
        }
      ],
      "stateMutability": "view",
      "type": "function",
      "constant": true
    },
    {
      "inputs": [
        {
          "internalType": "string",
          "name": "_name",
          "type": "string"
        }
      ],
      "name": "addCandidate",
      "outputs": [],
      "stateMutability": "nonpayable",
      "type": "function"
    },
    {
      "inputs": [
        {
          "internalType": "uint256",
          "name": "_candidateId",
          "type": "uint256"
        }
      ],
      "name": "vote",
      "outputs": [],
      "stateMutability": "nonpayable",
      "type": "function"
    },
    {
      "inputs": [
        {
          "internalType": "uint256",
          "name": "_candidateId",
          "type": "uint256"
        }
      ],
      "name": "getCandidate",
      "outputs": [
        {
          "internalType": "string",
          "name": "",
          "type": "string"
        },
        {
          "internalType": "uint256",
          "name": "",
          "type": "uint256"
        }
      ],
      "stateMutability": "view",
      "type": "function",
      "constant": true
    }
  ],
  "bytecode": "0x608060405234801561000f575f80fd5b50335f806101000a81548173ffffffffffffffffffffffffffffffffffffffff021916908373ffffffffffffffffffffffffffffffffffffffff1602179055505f600181905550610e44806100635f395ff3fe608060405234801561000f575f80fd5b506004361061007b575f3560e01c806335b8e8201161005957806335b8e820146100eb578063462e91ec1461011c578063a3ec138d14610138578063f851a440146101685761007b565b80630121b93f1461007f5780632d35a8a21461009b5780633477ee2e146100b9575b5f80fd5b610099600480360381019061009491906105ff565b610186565b005b6100a36102e5565b6040516100b09190610639565b60405180910390f35b6100d360048036038101906100ce91906105ff565b6102eb565b6040516100e2939291906106dc565b60405180910390f35b610105600480360381019061010091906105ff565b610397565b604051610113929190610718565b60405180910390f35b61013660048036038101906101319190610872565b610470565b005b610152600480360381019061014d9190610913565b610572565b60405161015f9190610958565b60405180910390f35b610170610598565b60405161017d9190610980565b60405180910390f35b60035f3373ffffffffffffffffffffffffffffffffffffffff1673ffffffffffffffffffffffffffffffffffffffff1681526020019081526020015f205f015f9054906101000a900460ff1615610212576040517f08c379a0000000000000000000000000000000000000000000000000000000008152600401610209906109e3565b60405180910390fd5b5f8111801561022357506001548111155b610262576040517f08c379a000000000000000000000000000000000000000000000000000000000815260040161025990610a4b565b60405180910390fd5b600160035f3373ffffffffffffffffffffffffffffffffffffffff1673ffffffffffffffffffffffffffffffffffffffff1681526020019081526020015f205f015f6101000a81548160ff02191690831515021790555060025f8281526020019081526020015f206002015f8154809291906102dd90610a96565b919050555050565b60015481565b6002602052805f5260405f205f91509050805f01549080600101805461031090610b0a565b80601f016020809104026020016040519081016040528092919081815260200182805461033c90610b0a565b80156103875780601f1061035e57610100808354040283529160200191610387565b820191905f5260205f20905b81548152906001019060200180831161036a57829003601f168201915b5050505050908060020154905083565b60605f8060025f8581526020019081526020015f206040518060600160405290815f82015481526020016001820180546103d090610b0a565b80601f01602080910402602001604051908101604052809291908181526020018280546103fc90610b0a565b80156104475780601f1061041e57610100808354040283529160200191610447565b820191905f5260205f20905b81548152906001019060200180831161042a57829003601f168201915b505050505081526020016002820154815250509050806020015181604001519250925050915091565b5f8054906101000a900473ffffffffffffffffffffffffffffffffffffffff1673ffffffffffffffffffffffffffffffffffffffff163373ffffffffffffffffffffffffffffffffffffffff16146104fd576040517f08c379a00000000000000000000000000000000000000000000000000000000081526004016104f490610b84565b60405180910390fd5b60015f81548092919061050f90610a96565b9190505550604051806060016040528060015481526020018281526020015f81525060025f60015481526020019081526020015f205f820151815f015560208201518160010190816105619190610d3f565b506040820151816002015590505050565b6003602052805f5260405f205f91509050805f015f9054906101000a900460ff16905081565b5f8054906101000a900473ffffffffffffffffffffffffffffffffffffffff1681565b5f604051905090565b5f80fd5b5f80fd5b5f819050919050565b6105de816105cc565b81146105e8575f80fd5b50565b5f813590506105f9816105d5565b92915050565b5f60208284031215610614576106136105c4565b5b5f610621848285016105eb565b91505092915050565b610633816105cc565b82525050565b5f60208201905061064c5f83018461062a565b92915050565b5f81519050919050565b5f82825260208201905092915050565b5f5b8381101561068957808201518184015260208101905061066e565b5f8484015250505050565b5f601f19601f8301169050919050565b5f6106ae82610652565b6106b8818561065c565b93506106c881856020860161066c565b6106d181610694565b840191505092915050565b5f6060820190506106ef5f83018661062a565b818103602083015261070181856106a4565b9050610710604083018461062a565b949350505050565b5f6040820190508181035f83015261073081856106a4565b905061073f602083018461062a565b9392505050565b5f80fd5b5f80fd5b7f4e487b71000000000000000000000000000000000000000000000000000000005f52604160045260245ffd5b61078482610694565b810181811067ffffffffffffffff821117156107a3576107a261074e565b5b80604052505050565b5f6107b56105bb565b90506107c1828261077b565b919050565b5f67ffffffffffffffff8211156107e0576107df61074e565b5b6107e982610694565b9050602081019050919050565b828183375f83830152505050565b5f610816610811846107c6565b6107ac565b9050828152602081018484840111156108325761083161074a565b5b61083d8482856107f6565b509392505050565b5f82601f83011261085957610858610746565b5b8135610869848260208601610804565b91505092915050565b5f60208284031215610887576108866105c4565b5b5f82013567ffffffffffffffff8111156108a4576108a36105c8565b5b6108b084828501610845565b91505092915050565b5f73ffffffffffffffffffffffffffffffffffffffff82169050919050565b5f6108e2826108b9565b9050919050565b6108f2816108d8565b81146108fc575f80fd5b50565b5f8135905061090d816108e9565b92915050565b5f60208284031215610928576109276105c4565b5b5f610935848285016108ff565b91505092915050565b5f8115159050919050565b6109528161093e565b82525050565b5f60208201905061096b5f830184610949565b92915050565b61097a816108d8565b82525050565b5f6020820190506109935f830184610971565b92915050565b7f416c726561647920766f746564000000000000000000000000000000000000005f82015250565b5f6109cd600d8361065c565b91506109d882610999565b602082019050919050565b5f6020820190508181035f8301526109fa816109c1565b9050919050565b7f496e76616c69642063616e6469646174650000000000000000000000000000005f82015250565b5f610a3560118361065c565b9150610a4082610a01565b602082019050919050565b5f6020820190508181035f830152610a6281610a29565b9050919050565b7f4e487b71000000000000000000000000000000000000000000000000000000005f52601160045260245ffd5b5f610aa0826105cc565b91507fffffffffffffffffffffffffffffffffffffffffffffffffffffffffffffffff8203610ad257610ad1610a69565b5b600182019050919050565b7f4e487b71000000000000000000000000000000000000000000000000000000005f52602260045260245ffd5b5f6002820490506001821680610b2157607f821691505b602082108103610b3457610b33610add565b5b50919050565b7f4f6e6c792061646d696e2063616e206164642063616e646964617465730000005f82015250565b5f610b6e601d8361065c565b9150610b7982610b3a565b602082019050919050565b5f6020820190508181035f830152610b9b81610b62565b9050919050565b5f819050815f5260205f209050919050565b5f6020601f8301049050919050565b5f82821b905092915050565b5f60088302610bfe7fffffffffffffffffffffffffffffffffffffffffffffffffffffffffffffffff82610bc3565b610c088683610bc3565b95508019841693508086168417925050509392505050565b5f819050919050565b5f610c43610c3e610c39846105cc565b610c20565b6105cc565b9050919050565b5f819050919050565b610c5c83610c29565b610c70610c6882610c4a565b848454610bcf565b825550505050565b5f90565b610c84610c78565b610c8f818484610c53565b505050565b5b81811015610cb257610ca75f82610c7c565b600181019050610c95565b5050565b601f821115610cf757610cc881610ba2565b610cd184610bb4565b81016020851015610ce0578190505b610cf4610cec85610bb4565b830182610c94565b50505b505050565b5f82821c905092915050565b5f610d175f1984600802610cfc565b1980831691505092915050565b5f610d2f8383610d08565b9150826002028217905092915050565b610d4882610652565b67ffffffffffffffff811115610d6157610d6061074e565b5b610d6b8254610b0a565b610d76828285610cb6565b5f60209050601f831160018114610da7575f8415610d95578287015190505b610d9f8582610d24565b865550610e06565b601f198416610db586610ba2565b5f5b82811015610ddc57848901518255600182019150602085019450602081019050610db7565b86831015610df95784890151610df5601f891682610d08565b8355505b6001600288020188555050505b50505050505056fea2646970667358221220936ad962005050c52e26c35eda7b465ec8adf8c4c1431786a043079372ae501864736f6c63430008140033",
  "immutableReferences": {},
  "source": "// SPDX-License-Identifier: MIT\r\npragma solidity ^0.8.20;\r\n\r\ncontract Voting {\r\n    address public admin;\r\n    uint public candidatesCount;\r\n\r\n    struct Candidate {\r\n        uint id;\r\n        string name;\r\n        uint voteCount;\r\n    }\r\n\r\n    struct Voter {\r\n        bool hasVoted;\r\n    }\r\n\r\n    mapping(uint => Candidate) public candidates;\r\n    mapping(address => Voter) public voters;\r\n\r\n    constructor() {\r\n        admin = msg.sender;\r\n        candidatesCount = 0;\r\n    }\r\n\r\n    function addCandidate(string memory _name) public {\r\n        require(msg.sender == admin, \"Only admin can add candidates\");\r\n        candidatesCount++;\r\n        candidates[candidatesCount] = Candidate(candidatesCount, _name, 0);\r\n    }\r\n\r\n    function vote(uint _candidateId) public {\r\n        require(!voters[msg.sender].hasVoted, \"Already voted\");\r\n        require(_candidateId > 0 && _candidateId <= candidatesCount, \"Invalid candidate\");\r\n\r\n        voters[msg.sender].hasVoted = true;\r\n        candidates[_candidateId].voteCount++;\r\n    }\r\n\r\n    function getCandidate(uint _candidateId) public view returns (string memory, uint) {\r\n        Candidate memory c = candidates[_candidateId];\r\n        return (c.name, c.voteCount);\r\n    }\r\n}\r\n",
  "sourcePath": "C:\\Users\\gaurav\\Desktop\\Decentralized-Online-Voting-System\\contracts\\Voting.sol",
  "compiler": {
    "name": "solc",
    "version": "0.8.20+commit.a1b79de6.Emscripten.clang"
  },
  "schemaVersion": "3.4.16",
  "updatedAt": "2025-05-31T04:04:05.400Z",
  "networkType": "ethereum",
  "devdoc": {
    "kind": "dev",
    "methods": {},
    "version": 1
  },
  "userdoc": {
    "kind": "user",
    "methods": {},
    "version": 1
  }
}